{
  "_format": "hh-sol-artifact-1",
  "contractName": "Issuer",
  "sourceName": "contracts/Issuer.sol",
  "abi": [
    {
      "inputs": [
        {
          "internalType": "address",
          "name": "core",
          "type": "address"
        },
        {
          "internalType": "uint256",
          "name": "_minActivatingDeposit",
          "type": "uint256"
        },
        {
          "internalType": "uint256",
          "name": "_pendingValidatorsLimit",
          "type": "uint256"
        },
        {
          "internalType": "address",
          "name": "_depositContract",
          "type": "address"
        }
      ],
      "stateMutability": "nonpayable",
      "type": "constructor"
    },
    {
      "anonymous": false,
      "inputs": [
        {
          "indexed": true,
          "internalType": "address",
          "name": "user",
          "type": "address"
        },
        {
          "indexed": false,
          "internalType": "uint256",
          "name": "validatorIndex",
          "type": "uint256"
        },
        {
          "indexed": false,
          "internalType": "uint256",
          "name": "amount",
          "type": "uint256"
        },
        {
          "indexed": false,
          "internalType": "uint256",
          "name": "block_time",
          "type": "uint256"
        }
      ],
      "name": "ActivatePendingDeposit",
      "type": "event"
    },
    {
      "anonymous": false,
      "inputs": [
        {
          "indexed": true,
          "internalType": "address",
          "name": "user",
          "type": "address"
        },
        {
          "indexed": false,
          "internalType": "uint256",
          "name": "validatorIndex",
          "type": "uint256"
        },
        {
          "indexed": false,
          "internalType": "uint256",
          "name": "amount",
          "type": "uint256"
        },
        {
          "indexed": false,
          "internalType": "uint256",
          "name": "block_time",
          "type": "uint256"
        }
      ],
      "name": "AddPendingDeposit",
      "type": "event"
    },
    {
      "anonymous": false,
      "inputs": [
        {
          "indexed": true,
          "internalType": "address",
          "name": "user",
          "type": "address"
        },
        {
          "indexed": false,
          "internalType": "uint256",
          "name": "amount",
          "type": "uint256"
        },
        {
          "indexed": false,
          "internalType": "uint256",
          "name": "block_time",
          "type": "uint256"
        }
      ],
      "name": "Checking",
      "type": "event"
    },
    {
      "anonymous": false,
      "inputs": [
        {
          "indexed": true,
          "internalType": "address",
          "name": "user",
          "type": "address"
        },
        {
          "indexed": false,
          "internalType": "uint256",
          "name": "amount",
          "type": "uint256"
        },
        {
          "indexed": false,
          "internalType": "uint256",
          "name": "block_time",
          "type": "uint256"
        }
      ],
      "name": "MintedTokens",
      "type": "event"
    },
    {
      "anonymous": false,
      "inputs": [
        {
          "indexed": false,
          "internalType": "address",
          "name": "account",
          "type": "address"
        }
      ],
      "name": "Paused",
      "type": "event"
    },
    {
      "anonymous": false,
      "inputs": [
        {
          "indexed": false,
          "internalType": "address",
          "name": "_core",
          "type": "address"
        }
      ],
      "name": "SetCore",
      "type": "event"
    },
    {
      "anonymous": false,
      "inputs": [
        {
          "indexed": false,
          "internalType": "uint256",
          "name": "_minActivatingDeposit",
          "type": "uint256"
        }
      ],
      "name": "SetMinActivationDeposit",
      "type": "event"
    },
    {
      "anonymous": false,
      "inputs": [
        {
          "indexed": false,
          "internalType": "uint256",
          "name": "_pendingValidatorsLimit",
          "type": "uint256"
        }
      ],
      "name": "SetPendingValidatorsLimit",
      "type": "event"
    },
    {
      "anonymous": false,
      "inputs": [
        {
          "indexed": true,
          "internalType": "address",
          "name": "user",
          "type": "address"
        },
        {
          "indexed": false,
          "internalType": "uint256",
          "name": "amount",
          "type": "uint256"
        },
        {
          "indexed": false,
          "internalType": "uint256",
          "name": "min_deposit",
          "type": "uint256"
        },
        {
          "indexed": false,
          "internalType": "uint256",
          "name": "block_time",
          "type": "uint256"
        }
      ],
      "name": "Stake",
      "type": "event"
    },
    {
      "anonymous": false,
      "inputs": [
        {
          "indexed": false,
          "internalType": "address",
          "name": "account",
          "type": "address"
        }
      ],
      "name": "Unpaused",
      "type": "event"
    },
    {
      "anonymous": false,
      "inputs": [
        {
          "indexed": false,
          "internalType": "uint256",
          "name": "_pendingValidators",
          "type": "uint256"
        }
      ],
      "name": "UpdatePendingValidators",
      "type": "event"
    },
    {
      "inputs": [],
      "name": "BASIS_POINT",
      "outputs": [
        {
          "internalType": "uint256",
          "name": "",
          "type": "uint256"
        }
      ],
      "stateMutability": "view",
      "type": "function"
    },
    {
      "inputs": [],
      "name": "DEPOSIT_CONTRACT",
      "outputs": [
        {
          "internalType": "contract IDepositContract",
          "name": "",
          "type": "address"
        }
      ],
      "stateMutability": "view",
      "type": "function"
    },
    {
      "inputs": [],
      "name": "VALIDATOR_DEPOSIT",
      "outputs": [
        {
          "internalType": "uint256",
          "name": "",
          "type": "uint256"
        }
      ],
      "stateMutability": "view",
      "type": "function"
    },
    {
      "inputs": [],
      "name": "VERIFICATION_DEPOSIT",
      "outputs": [
        {
          "internalType": "uint256",
          "name": "",
          "type": "uint256"
        }
      ],
      "stateMutability": "view",
      "type": "function"
    },
    {
      "inputs": [
        {
          "internalType": "address",
          "name": "_account",
          "type": "address"
        },
        {
          "internalType": "uint256",
          "name": "_validatorIndex",
          "type": "uint256"
        }
      ],
      "name": "activate",
      "outputs": [],
      "stateMutability": "nonpayable",
      "type": "function"
    },
    {
      "inputs": [],
      "name": "activatingDeposit",
      "outputs": [
        {
          "internalType": "uint256",
          "name": "",
          "type": "uint256"
        }
      ],
      "stateMutability": "view",
      "type": "function"
    },
    {
      "inputs": [
        {
          "internalType": "address",
          "name": "",
          "type": "address"
        },
        {
          "internalType": "uint256",
          "name": "",
          "type": "uint256"
        }
      ],
      "name": "activations",
      "outputs": [
        {
          "internalType": "uint256",
          "name": "",
          "type": "uint256"
        }
      ],
      "stateMutability": "view",
      "type": "function"
    },
    {
      "inputs": [],
      "name": "core",
      "outputs": [
        {
          "internalType": "contract ICore",
          "name": "",
          "type": "address"
        }
      ],
      "stateMutability": "view",
      "type": "function"
    },
    {
      "inputs": [
        {
          "internalType": "bytes",
          "name": "publicKey",
          "type": "bytes"
        }
      ],
      "name": "depositToEth2",
      "outputs": [],
      "stateMutability": "nonpayable",
      "type": "function"
    },
    {
      "inputs": [],
      "name": "minActivatingDeposit",
      "outputs": [
        {
          "internalType": "uint256",
          "name": "",
          "type": "uint256"
        }
      ],
      "stateMutability": "view",
      "type": "function"
    },
    {
      "inputs": [],
      "name": "oracle",
      "outputs": [
        {
          "internalType": "contract IOracle",
          "name": "",
          "type": "address"
        }
      ],
      "stateMutability": "view",
      "type": "function"
    },
    {
      "inputs": [],
      "name": "pause",
      "outputs": [],
      "stateMutability": "nonpayable",
      "type": "function"
    },
    {
      "inputs": [],
      "name": "paused",
      "outputs": [
        {
          "internalType": "bool",
          "name": "",
          "type": "bool"
        }
      ],
      "stateMutability": "view",
      "type": "function"
    },
    {
      "inputs": [],
      "name": "pendingValidatorLimit",
      "outputs": [
        {
          "internalType": "uint256",
          "name": "",
          "type": "uint256"
        }
      ],
      "stateMutability": "view",
      "type": "function"
    },
    {
      "inputs": [],
      "name": "pendingValidators",
      "outputs": [
        {
          "internalType": "uint256",
          "name": "",
          "type": "uint256"
        }
      ],
      "stateMutability": "view",
      "type": "function"
    },
    {
      "inputs": [],
      "name": "pendingValidatorsLimit",
      "outputs": [
        {
          "internalType": "uint256",
          "name": "",
          "type": "uint256"
        }
      ],
      "stateMutability": "view",
      "type": "function"
    },
    {
      "inputs": [
        {
          "internalType": "address",
          "name": "core",
          "type": "address"
        }
      ],
      "name": "setCore",
      "outputs": [],
      "stateMutability": "nonpayable",
      "type": "function"
    },
    {
      "inputs": [
        {
          "internalType": "uint256",
          "name": "_minActivatingDeposit",
          "type": "uint256"
        }
      ],
      "name": "setMinActivatingDeposit",
      "outputs": [],
      "stateMutability": "nonpayable",
      "type": "function"
    },
    {
      "inputs": [
        {
          "internalType": "uint256",
          "name": "_pendingValidatorsLimit",
          "type": "uint256"
        }
      ],
      "name": "setPendingValidatorsLimit",
      "outputs": [],
      "stateMutability": "nonpayable",
      "type": "function"
    },
    {
      "inputs": [],
      "name": "stake",
      "outputs": [],
      "stateMutability": "payable",
      "type": "function"
    },
    {
      "inputs": [],
      "name": "stkEth",
      "outputs": [
        {
          "internalType": "contract IStkEth",
          "name": "",
          "type": "address"
        }
      ],
      "stateMutability": "view",
      "type": "function"
    },
    {
      "inputs": [],
      "name": "unpause",
      "outputs": [],
      "stateMutability": "nonpayable",
      "type": "function"
    },
    {
      "inputs": [
        {
          "internalType": "uint256",
          "name": "newActiveValidators",
          "type": "uint256"
        }
      ],
      "name": "updatePendingValidator",
      "outputs": [],
      "stateMutability": "nonpayable",
      "type": "function"
    }
  ],
  "bytecode": "0x60a06040523480156200001157600080fd5b50604051620031863803806200318683398181016040528101906200003791906200027e565b8360008060006101000a81548160ff021916908315150217905550600073ffffffffffffffffffffffffffffffffffffffff168173ffffffffffffffffffffffffffffffffffffffff161415620000c5576040517f08c379a0000000000000000000000000000000000000000000000000000000008152600401620000bc90620003d1565b60405180910390fd5b80600060016101000a81548173ffffffffffffffffffffffffffffffffffffffff021916908373ffffffffffffffffffffffffffffffffffffffff1602179055507fb509f1ef29149e474db3a4776b2b658ad1b70710ceb0a5635a375a4c388eed8e8160405162000137919062000370565b60405180910390a15060018081905550600073ffffffffffffffffffffffffffffffffffffffff168173ffffffffffffffffffffffffffffffffffffffff161415620001ba576040517f08c379a0000000000000000000000000000000000000000000000000000000008152600401620001b190620003af565b60405180910390fd5b8073ffffffffffffffffffffffffffffffffffffffff1660808173ffffffffffffffffffffffffffffffffffffffff1660601b815250508260038190555061271082106200023f576040517f08c379a000000000000000000000000000000000000000000000000000000000815260040162000236906200038d565b60405180910390fd5b8160048190555050505050620004f1565b6000815190506200026181620004bd565b92915050565b6000815190506200027881620004d7565b92915050565b600080600080608085870312156200029557600080fd5b6000620002a58782880162000250565b9450506020620002b88782880162000267565b9350506040620002cb8782880162000267565b9250506060620002de8782880162000250565b91505092959194509250565b620002f58162000404565b82525050565b60006200030a601583620003f3565b9150620003178262000442565b602082019050919050565b600062000331601483620003f3565b91506200033e826200046b565b602082019050919050565b600062000358601583620003f3565b9150620003658262000494565b602082019050919050565b6000602082019050620003876000830184620002ea565b92915050565b60006020820190508181036000830152620003a881620002fb565b9050919050565b60006020820190508181036000830152620003ca8162000322565b9050919050565b60006020820190508181036000830152620003ec8162000349565b9050919050565b600082825260208201905092915050565b6000620004118262000418565b9050919050565b600073ffffffffffffffffffffffffffffffffffffffff82169050919050565b6000819050919050565b7f4973737565723a20696e76616c6964206c696d69740000000000000000000000600082015250565b7f4973737565723a205a65726f2061646472657373000000000000000000000000600082015250565b7f436f72655265663a205a65726f20616464726573730000000000000000000000600082015250565b620004c88162000404565b8114620004d457600080fd5b50565b620004e28162000438565b8114620004ee57600080fd5b50565b60805160601c612c6f6200051760003960008181610ca6015261172d0152612c6f6000f3fe6080604052600436106101405760003560e01c80638456cb59116100b6578063cbe0944a1161006f578063cbe0944a146103cd578063da44e9c5146103f8578063e7f9533414610423578063f28ac87514610460578063f2f4eb261461048b578063f9fde9f4146104b657610140565b80638456cb59146102e357806390100bcc146102fa578063972d7ac914610325578063a82f255b1461034e578063ada5f64214610379578063ca11be69146103a457610140565b80635b49dc08116101085780635b49dc08146101e35780635c975abb1461020e5780636b96736b146102395780637cd85485146102645780637dc0d1d01461028f57806380009630146102ba57610140565b8063111f052c146101455780632feb0be61461016e5780633a4b66f1146101975780633f4ba83a146101a1578063441d92cc146101b8575b600080fd5b34801561015157600080fd5b5061016c60048036038101906101679190611f65565b6104df565b005b34801561017a57600080fd5b5061019560048036038101906101909190611f65565b61064e565b005b61019f610790565b005b3480156101ad57600080fd5b506101b6610b87565b005b3480156101c457600080fd5b506101cd610c7b565b6040516101da919061252b565b60405180910390f35b3480156101ef57600080fd5b506101f8610c88565b604051610205919061252b565b60405180910390f35b34801561021a57600080fd5b50610223610c8e565b60405161023091906122c4565b60405180910390f35b34801561024557600080fd5b5061024e610ca4565b60405161025b919061237a565b60405180910390f35b34801561027057600080fd5b50610279610cc8565b60405161028691906123b0565b60405180910390f35b34801561029b57600080fd5b506102a4610d6e565b6040516102b19190612395565b60405180910390f35b3480156102c657600080fd5b506102e160048036038101906102dc9190611dd6565b610e14565b005b3480156102ef57600080fd5b506102f8610f79565b005b34801561030657600080fd5b5061030f61106d565b60405161031c919061252b565b60405180910390f35b34801561033157600080fd5b5061034c60048036038101906103479190611f65565b611079565b005b34801561035a57600080fd5b506103636111a4565b604051610370919061252b565b60405180910390f35b34801561038557600080fd5b5061038e6111aa565b60405161039b919061252b565b60405180910390f35b3480156103b057600080fd5b506103cb60048036038101906103c69190611e28565b6111b0565b005b3480156103d957600080fd5b506103e2611439565b6040516103ef919061252b565b60405180910390f35b34801561040457600080fd5b5061040d611443565b60405161041a919061252b565b60405180910390f35b34801561042f57600080fd5b5061044a60048036038101906104459190611e28565b611449565b604051610457919061252b565b60405180910390f35b34801561046c57600080fd5b5061047561146e565b604051610482919061252b565b60405180910390f35b34801561049757600080fd5b506104a0611478565b6040516104ad919061235f565b60405180910390f35b3480156104c257600080fd5b506104dd60048036038101906104d89190611eb6565b6114a1565b005b600060019054906101000a900473ffffffffffffffffffffffffffffffffffffffff1673ffffffffffffffffffffffffffffffffffffffff1663e43581b8336040518263ffffffff1660e01b815260040161053a9190612280565b60206040518083038186803b15801561055257600080fd5b505afa158015610566573d6000803e3d6000fd5b505050506040513d601f19601f8201168201806040525081019061058a9190611e64565b6105c9576040517f08c379a00000000000000000000000000000000000000000000000000000000081526004016105c0906124eb565b60405180910390fd5b612710811061060d576040517f08c379a0000000000000000000000000000000000000000000000000000000008152600401610604906124cb565b60405180910390fd5b806004819055507ff13548771f8b7580cc62ccca5ed3dee7b41528a7ae35b642f1d8efc295075cce81604051610643919061252b565b60405180910390a150565b3373ffffffffffffffffffffffffffffffffffffffff1661066d611478565b73ffffffffffffffffffffffffffffffffffffffff16637dc0d1d06040518163ffffffff1660e01b815260040160206040518083038186803b1580156106b257600080fd5b505afa1580156106c6573d6000803e3d6000fd5b505050506040513d601f19601f820116820180604052508101906106ea9190611dff565b73ffffffffffffffffffffffffffffffffffffffff1614610740576040517f08c379a0000000000000000000000000000000000000000000000000000000008152600401610737906124ab565b60405180910390fd5b8060025461074e9190612715565b6002819055507f62a3b78aede45534644db5c8d40aa4d36bee5174ee6899574215f3c078188036600254604051610785919061252b565b60405180910390a150565b610798610c8e565b156107d8576040517f08c379a00000000000000000000000000000000000000000000000000000000081526004016107cf9061248b565b60405180910390fd5b6000341161081b576040517f08c379a00000000000000000000000000000000000000000000000000000000081526004016108129061246b565b60405180910390fd5b3373ffffffffffffffffffffffffffffffffffffffff167ff556991011e831bcfac4f406d547e5e32cdd98267efab83935230d5f8d02c44634600354426040516108679392919061256f565b60405180910390a260035434116108d7576108823433611878565b3373ffffffffffffffffffffffffffffffffffffffff167f60be7c25e0d0ac32406001c117a47a9e0ff8856160230b5258b179e03756caf534426040516108ca929190612546565b60405180910390a2610b85565b60006801ae361fc1451c0000476108ee919061268a565b6002546108fb9190612634565b90506000610907610d6e565b73ffffffffffffffffffffffffffffffffffffffff1663899b7c746040518163ffffffff1660e01b815260040160206040518083038186803b15801561094c57600080fd5b505afa158015610960573d6000803e3d6000fd5b505050506040513d601f19601f820116820180604052508101906109849190611f8e565b9050600082826109949190612634565b90503373ffffffffffffffffffffffffffffffffffffffff167f1f0a479239744888bec91b6557b534ad0c9eccb4426bb27e9ac39dfb64461d9334426040516109de929190612546565b60405180910390a26127106004546109f69190612634565b82610a0191906126bb565b61271082610a0f91906126bb565b11610a2357610a1e3433611878565b610b81565b34600560003373ffffffffffffffffffffffffffffffffffffffff1673ffffffffffffffffffffffffffffffffffffffff168152602001908152602001600020600083815260200190815260200160002054610a7f9190612634565b600560003373ffffffffffffffffffffffffffffffffffffffff1673ffffffffffffffffffffffffffffffffffffffff1681526020019081526020016000206000838152602001908152602001600020819055503373ffffffffffffffffffffffffffffffffffffffff167f57faf96d52d0b8e67ac43fe5cd3bcdad70237370e2a773802974e504be059f1a8234600560003373ffffffffffffffffffffffffffffffffffffffff1673ffffffffffffffffffffffffffffffffffffffff168152602001908152602001600020600086815260200190815260200160002054610b689190612634565b42604051610b789392919061256f565b60405180910390a25b5050505b565b600060019054906101000a900473ffffffffffffffffffffffffffffffffffffffff1673ffffffffffffffffffffffffffffffffffffffff1663e43581b8336040518263ffffffff1660e01b8152600401610be29190612280565b60206040518083038186803b158015610bfa57600080fd5b505afa158015610c0e573d6000803e3d6000fd5b505050506040513d601f19601f82011682018060405250810190610c329190611e64565b610c71576040517f08c379a0000000000000000000000000000000000000000000000000000000008152600401610c68906124eb565b60405180910390fd5b610c79611998565b565b6801ae361fc1451c000081565b60045481565b60008060009054906101000a900460ff16905090565b7f000000000000000000000000000000000000000000000000000000000000000081565b60008060019054906101000a900473ffffffffffffffffffffffffffffffffffffffff1673ffffffffffffffffffffffffffffffffffffffff16637cd854856040518163ffffffff1660e01b815260040160206040518083038186803b158015610d3157600080fd5b505afa158015610d45573d6000803e3d6000fd5b505050506040513d601f19601f82011682018060405250810190610d699190611efb565b905090565b60008060019054906101000a900473ffffffffffffffffffffffffffffffffffffffff1673ffffffffffffffffffffffffffffffffffffffff16637dc0d1d06040518163ffffffff1660e01b815260040160206040518083038186803b158015610dd757600080fd5b505afa158015610deb573d6000803e3d6000fd5b505050506040513d601f19601f82011682018060405250810190610e0f9190611dff565b905090565b600060019054906101000a900473ffffffffffffffffffffffffffffffffffffffff1673ffffffffffffffffffffffffffffffffffffffff1663e43581b8336040518263ffffffff1660e01b8152600401610e6f9190612280565b60206040518083038186803b158015610e8757600080fd5b505afa158015610e9b573d6000803e3d6000fd5b505050506040513d601f19601f82011682018060405250810190610ebf9190611e64565b610efe576040517f08c379a0000000000000000000000000000000000000000000000000000000008152600401610ef5906124eb565b60405180910390fd5b80600060016101000a81548173ffffffffffffffffffffffffffffffffffffffff021916908373ffffffffffffffffffffffffffffffffffffffff1602179055507fb509f1ef29149e474db3a4776b2b658ad1b70710ceb0a5635a375a4c388eed8e81604051610f6e9190612280565b60405180910390a150565b600060019054906101000a900473ffffffffffffffffffffffffffffffffffffffff1673ffffffffffffffffffffffffffffffffffffffff1663e43581b8336040518263ffffffff1660e01b8152600401610fd49190612280565b60206040518083038186803b158015610fec57600080fd5b505afa158015611000573d6000803e3d6000fd5b505050506040513d601f19601f820116820180604052508101906110249190611e64565b611063576040517f08c379a000000000000000000000000000000000000000000000000000000000815260040161105a906124eb565b60405180910390fd5b61106b611a39565b565b670de0b6b3a764000081565b600060019054906101000a900473ffffffffffffffffffffffffffffffffffffffff1673ffffffffffffffffffffffffffffffffffffffff1663e43581b8336040518263ffffffff1660e01b81526004016110d49190612280565b60206040518083038186803b1580156110ec57600080fd5b505afa158015611100573d6000803e3d6000fd5b505050506040513d601f19601f820116820180604052508101906111249190611e64565b611163576040517f08c379a000000000000000000000000000000000000000000000000000000000815260040161115a906124eb565b60405180910390fd5b806003819055507f8e8c0bcf6326195329bf2a668361a2eb0c9d33c5708fba9e806ad9c35aa9297981604051611199919061252b565b60405180910390a150565b60025481565b61271081565b6111b8610c8e565b156111f8576040517f08c379a00000000000000000000000000000000000000000000000000000000081526004016111ef9061248b565b60405180910390fd5b6000611202610d6e565b73ffffffffffffffffffffffffffffffffffffffff1663899b7c746040518163ffffffff1660e01b815260040160206040518083038186803b15801561124757600080fd5b505afa15801561125b573d6000803e3d6000fd5b505050506040513d601f19601f8201168201806040525081019061127f9190611f8e565b90506000600560008573ffffffffffffffffffffffffffffffffffffffff1673ffffffffffffffffffffffffffffffffffffffff168152602001908152602001600020600084815260200190815260200160002054905060008111611319576040517f08c379a00000000000000000000000000000000000000000000000000000000081526004016113109061240b565b60405180910390fd5b6127106004546113299190612634565b8261133491906126bb565b6127108461134291906126bb565b1115611383576040517f08c379a000000000000000000000000000000000000000000000000000000000815260040161137a906123eb565b60405180910390fd5b600560008573ffffffffffffffffffffffffffffffffffffffff1673ffffffffffffffffffffffffffffffffffffffff1681526020019081526020016000206000848152602001908152602001600020600090556113e18185611878565b3373ffffffffffffffffffffffffffffffffffffffff167f2338d6bed4725c78bf59afed9000efafba6df4678d4bcf6c910bf570b5614b4284834260405161142b9392919061256f565b60405180910390a250505050565b6000600454905090565b60035481565b6005602052816000526040600020602052806000526040600020600091509150505481565b6000600354905090565b60008060019054906101000a900473ffffffffffffffffffffffffffffffffffffffff16905090565b670de0b6b3a76400006801ae361fc1451c00006114be9190612634565b471015611500576040517f08c379a00000000000000000000000000000000000000000000000000000000081526004016114f79061244b565b60405180910390fd5b600061150a611478565b73ffffffffffffffffffffffffffffffffffffffff16635dddf3a86040518163ffffffff1660e01b815260040160206040518083038186803b15801561154f57600080fd5b505afa158015611563573d6000803e3d6000fd5b505050506040513d601f19601f820116820180604052508101906115879190611dff565b73ffffffffffffffffffffffffffffffffffffffff16636c36511a84846040518363ffffffff1660e01b81526004016115c19291906122df565b60006040518083038186803b1580156115d957600080fd5b505afa1580156115ed573d6000803e3d6000fd5b505050506040513d6000823e3d601f19601f820116820180604052508101906116169190611f24565b90506116258160400151611adb565b61162d611478565b73ffffffffffffffffffffffffffffffffffffffff16635dddf3a86040518163ffffffff1660e01b815260040160206040518083038186803b15801561167257600080fd5b505afa158015611686573d6000803e3d6000fd5b505050506040513d601f19601f820116820180604052508101906116aa9190611dff565b73ffffffffffffffffffffffffffffffffffffffff16634df84ea884846040518363ffffffff1660e01b81526004016116e49291906122df565b600060405180830381600087803b1580156116fe57600080fd5b505af1158015611712573d6000803e3d6000fd5b5050505060016002546117259190612634565b6002819055507f000000000000000000000000000000000000000000000000000000000000000073ffffffffffffffffffffffffffffffffffffffff1663228951186801ae361fc1451c0000858561177b611478565b73ffffffffffffffffffffffffffffffffffffffff1663830593036040518163ffffffff1660e01b815260040160206040518083038186803b1580156117c057600080fd5b505afa1580156117d4573d6000803e3d6000fd5b505050506040513d601f19601f820116820180604052508101906117f89190611e8d565b6040516020016118089190612250565b604051602081830303815290604052866020015187606001516040518763ffffffff1660e01b8152600401611841959493929190612303565b6000604051808303818588803b15801561185a57600080fd5b505af115801561186e573d6000803e3d6000fd5b5050505050505050565b6000611882610cc8565b73ffffffffffffffffffffffffffffffffffffffff166399530b066040518163ffffffff1660e01b815260040160206040518083038186803b1580156118c757600080fd5b505afa1580156118db573d6000803e3d6000fd5b505050506040513d601f19601f820116820180604052508101906118ff9190611f8e565b670de0b6b3a76400008461191391906126bb565b61191d919061268a565b9050611927610cc8565b73ffffffffffffffffffffffffffffffffffffffff166340c10f1983836040518363ffffffff1660e01b815260040161196192919061229b565b600060405180830381600087803b15801561197b57600080fd5b505af115801561198f573d6000803e3d6000fd5b50505050505050565b6119a0610c8e565b6119df576040517f08c379a00000000000000000000000000000000000000000000000000000000081526004016119d6906123cb565b60405180910390fd5b60008060006101000a81548160ff0219169083151502179055507f5db9ee0a495bf2e6ff9c91a7834c1ba4fdd244a5e8aa4e537bd38aeae4b073aa611a22611be8565b604051611a2f9190612280565b60405180910390a1565b611a41610c8e565b15611a81576040517f08c379a0000000000000000000000000000000000000000000000000000000008152600401611a789061248b565b60405180910390fd5b60016000806101000a81548160ff0219169083151502179055507f62e78cea01bee320cd4e420270b5ea74000d11b0c9f74754ebdbfc544b05a258611ac4611be8565b604051611ad19190612280565b60405180910390a1565b60026001541415611b21576040517f08c379a0000000000000000000000000000000000000000000000000000000008152600401611b189061250b565b60405180910390fd5b600260018190555060008173ffffffffffffffffffffffffffffffffffffffff16670de0b6b3a7640000604051611b579061226b565b60006040518083038185875af1925050503d8060008114611b94576040519150601f19603f3d011682016040523d82523d6000602084013e611b99565b606091505b5050905080611bdd576040517f08c379a0000000000000000000000000000000000000000000000000000000008152600401611bd49061242b565b60405180910390fd5b506001808190555050565b600033905090565b6000611c03611bfe846125cb565b6125a6565b905082815260208101848484011115611c1b57600080fd5b611c2684828561284c565b509392505050565b600081359050611c3d81612bb6565b92915050565b600081519050611c5281612bb6565b92915050565b600081519050611c6781612bcd565b92915050565b600081519050611c7c81612be4565b92915050565b60008083601f840112611c9457600080fd5b8235905067ffffffffffffffff811115611cad57600080fd5b602083019150836001820283011115611cc557600080fd5b9250929050565b600082601f830112611cdd57600080fd5b8151611ced848260208601611bf0565b91505092915050565b600081519050611d0581612bfb565b92915050565b600081519050611d1a81612c12565b92915050565b600060808284031215611d3257600080fd5b611d3c60806125a6565b90506000611d4c84828501611d0b565b600083015250602082015167ffffffffffffffff811115611d6c57600080fd5b611d7884828501611ccc565b6020830152506040611d8c84828501611c43565b6040830152506060611da084828501611c6d565b60608301525092915050565b600081359050611dbb81612c22565b92915050565b600081519050611dd081612c22565b92915050565b600060208284031215611de857600080fd5b6000611df684828501611c2e565b91505092915050565b600060208284031215611e1157600080fd5b6000611e1f84828501611c43565b91505092915050565b60008060408385031215611e3b57600080fd5b6000611e4985828601611c2e565b9250506020611e5a85828601611dac565b9150509250929050565b600060208284031215611e7657600080fd5b6000611e8484828501611c58565b91505092915050565b600060208284031215611e9f57600080fd5b6000611ead84828501611c6d565b91505092915050565b60008060208385031215611ec957600080fd5b600083013567ffffffffffffffff811115611ee357600080fd5b611eef85828601611c82565b92509250509250929050565b600060208284031215611f0d57600080fd5b6000611f1b84828501611cf6565b91505092915050565b600060208284031215611f3657600080fd5b600082015167ffffffffffffffff811115611f5057600080fd5b611f5c84828501611d20565b91505092915050565b600060208284031215611f7757600080fd5b6000611f8584828501611dac565b91505092915050565b600060208284031215611fa057600080fd5b6000611fae84828501611dc1565b91505092915050565b611fc081612749565b82525050565b611fcf8161275b565b82525050565b611fde81612767565b82525050565b611ff5611ff082612767565b6128b0565b82525050565b60006120078385612607565b935061201483858461283d565b61201d83612947565b840190509392505050565b6000612033826125fc565b61203d8185612607565b935061204d81856020860161284c565b61205681612947565b840191505092915050565b61206a816127ad565b82525050565b612079816127d1565b82525050565b612088816127f5565b82525050565b61209781612819565b82525050565b60006120aa601483612623565b91506120b582612958565b602082019050919050565b60006120cd602383612623565b91506120d882612981565b604082019050919050565b60006120f0601f83612623565b91506120fb826129d0565b602082019050919050565b6000612113602783612623565b915061211e826129f9565b604082019050919050565b6000612136602283612623565b915061214182612a48565b604082019050919050565b6000612159601883612623565b915061216482612a97565b602082019050919050565b600061217c601083612623565b915061218782612ac0565b602082019050919050565b600061219f601e83612623565b91506121aa82612ae9565b602082019050919050565b60006121c2601583612623565b91506121cd82612b12565b602082019050919050565b60006121e5600083612618565b91506121f082612b3b565b600082019050919050565b6000612208602183612623565b915061221382612b3e565b604082019050919050565b600061222b601f83612623565b915061223682612b8d565b602082019050919050565b61224a816127a3565b82525050565b600061225c8284611fe4565b60208201915081905092915050565b6000612276826121d8565b9150819050919050565b60006020820190506122956000830184611fb7565b92915050565b60006040820190506122b06000830185611fb7565b6122bd6020830184612241565b9392505050565b60006020820190506122d96000830184611fc6565b92915050565b600060208201905081810360008301526122fa818486611ffb565b90509392505050565b6000608082019050818103600083015261231e818789611ffb565b905081810360208301526123328186612028565b905081810360408301526123468185612028565b90506123556060830184611fd5565b9695505050505050565b60006020820190506123746000830184612061565b92915050565b600060208201905061238f6000830184612070565b92915050565b60006020820190506123aa600083018461207f565b92915050565b60006020820190506123c5600083018461208e565b92915050565b600060208201905081810360008301526123e48161209d565b9050919050565b60006020820190508181036000830152612404816120c0565b9050919050565b60006020820190508181036000830152612424816120e3565b9050919050565b6000602082019050818103600083015261244481612106565b9050919050565b6000602082019050818103600083015261246481612129565b9050919050565b600060208201905081810360008301526124848161214c565b9050919050565b600060208201905081810360008301526124a48161216f565b9050919050565b600060208201905081810360008301526124c481612192565b9050919050565b600060208201905081810360008301526124e4816121b5565b9050919050565b60006020820190508181036000830152612504816121fb565b9050919050565b600060208201905081810360008301526125248161221e565b9050919050565b60006020820190506125406000830184612241565b92915050565b600060408201905061255b6000830185612241565b6125686020830184612241565b9392505050565b60006060820190506125846000830186612241565b6125916020830185612241565b61259e6040830184612241565b949350505050565b60006125b06125c1565b90506125bc828261287f565b919050565b6000604051905090565b600067ffffffffffffffff8211156125e6576125e5612918565b5b6125ef82612947565b9050602081019050919050565b600081519050919050565b600082825260208201905092915050565b600081905092915050565b600082825260208201905092915050565b600061263f826127a3565b915061264a836127a3565b9250827fffffffffffffffffffffffffffffffffffffffffffffffffffffffffffffffff0382111561267f5761267e6128ba565b5b828201905092915050565b6000612695826127a3565b91506126a0836127a3565b9250826126b0576126af6128e9565b5b828204905092915050565b60006126c6826127a3565b91506126d1836127a3565b9250817fffffffffffffffffffffffffffffffffffffffffffffffffffffffffffffffff048311821515161561270a576127096128ba565b5b828202905092915050565b6000612720826127a3565b915061272b836127a3565b92508282101561273e5761273d6128ba565b5b828203905092915050565b600061275482612783565b9050919050565b60008115159050919050565b6000819050919050565b600061277c82612749565b9050919050565b600073ffffffffffffffffffffffffffffffffffffffff82169050919050565b6000819050919050565b60006127b8826127bf565b9050919050565b60006127ca82612783565b9050919050565b60006127dc826127e3565b9050919050565b60006127ee82612783565b9050919050565b600061280082612807565b9050919050565b600061281282612783565b9050919050565b60006128248261282b565b9050919050565b600061283682612783565b9050919050565b82818337600083830152505050565b60005b8381101561286a57808201518184015260208101905061284f565b83811115612879576000848401525b50505050565b61288882612947565b810181811067ffffffffffffffff821117156128a7576128a6612918565b5b80604052505050565b6000819050919050565b7f4e487b7100000000000000000000000000000000000000000000000000000000600052601160045260246000fd5b7f4e487b7100000000000000000000000000000000000000000000000000000000600052601260045260246000fd5b7f4e487b7100000000000000000000000000000000000000000000000000000000600052604160045260246000fd5b6000601f19601f8301169050919050565b7f5061757361626c653a206e6f7420706175736564000000000000000000000000600082015250565b7f4973737565723a2076616c696461746f72206973206e6f74206163746976652060008201527f7965740000000000000000000000000000000000000000000000000000000000602082015250565b7f4973737565723a20696e76616c69642076616c696461746f7220696e64657800600082015250565b7f4973737565723a204661696c656420746f2073656e6420746f204e6f6465204f60008201527f70657261746f7200000000000000000000000000000000000000000000000000602082015250565b7f4973737565723a204e6f7420656e6f756768206574686572206465706f73697460008201527f6564000000000000000000000000000000000000000000000000000000000000602082015250565b7f4973737565723a2063616e2774207374616b65207a65726f0000000000000000600082015250565b7f5061757361626c653a2070617573656400000000000000000000000000000000600082015250565b7f4973737565723a204f6e6c79206f7261636c652063616e207570646174650000600082015250565b7f4973737565723a20696e76616c6964206c696d69740000000000000000000000600082015250565b50565b7f436f72655265663a2043616c6c6572206973206e6f74206120676f7665726e6f60008201527f7200000000000000000000000000000000000000000000000000000000000000602082015250565b7f5265656e7472616e637947756172643a207265656e7472616e742063616c6c00600082015250565b612bbf81612749565b8114612bca57600080fd5b50565b612bd68161275b565b8114612be157600080fd5b50565b612bed81612767565b8114612bf857600080fd5b50565b612c0481612771565b8114612c0f57600080fd5b50565b60048110612c1f57600080fd5b50565b612c2b816127a3565b8114612c3657600080fd5b5056fea2646970667358221220d9fdb965127ab39d82211eb9ef83c15a2b16d6eb62be911c12251d1aafb0bda664736f6c63430008040033",
  "linkReferences": {},
  "deployedLinkReferences": {}
}