{
  "_format": "hh-sol-artifact-1",
  "contractName": "Issuer",
  "sourceName": "contracts/IssuerUpgradable.sol",
  "abi": [
    {
      "inputs": [],
      "name": "InsufficientBalance",
      "type": "error"
    },
    {
      "inputs": [
        {
          "internalType": "uint256",
          "name": "messengerId",
          "type": "uint256"
        }
      ],
      "name": "MessengerNotEnabled",
      "type": "error"
    },
    {
      "inputs": [
        {
          "internalType": "uint256",
          "name": "messengerId",
          "type": "uint256"
        }
      ],
      "name": "MessengerNotFound",
      "type": "error"
    },
    {
      "inputs": [],
      "name": "StakingZeroAmount",
      "type": "error"
    },
    {
      "inputs": [],
      "name": "ZeroAddress",
      "type": "error"
    },
    {
      "inputs": [],
      "name": "ZeroMessengers",
      "type": "error"
    },
    {
      "inputs": [],
      "name": "contractPaused",
      "type": "error"
    },
    {
      "anonymous": false,
      "inputs": [
        {
          "indexed": false,
          "internalType": "uint256",
          "name": "block",
          "type": "uint256"
        }
      ],
      "name": "ContractPaused",
      "type": "event"
    },
    {
      "anonymous": false,
      "inputs": [
        {
          "indexed": false,
          "internalType": "uint256",
          "name": "block",
          "type": "uint256"
        }
      ],
      "name": "ContractUnPaused",
      "type": "event"
    },
    {
      "anonymous": false,
      "inputs": [
        {
          "indexed": false,
          "internalType": "uint8",
          "name": "version",
          "type": "uint8"
        }
      ],
      "name": "Initialized",
      "type": "event"
    },
    {
      "anonymous": false,
      "inputs": [
        {
          "indexed": false,
          "internalType": "uint256",
          "name": "messengerId",
          "type": "uint256"
        },
        {
          "indexed": false,
          "internalType": "address",
          "name": "messenger",
          "type": "address"
        },
        {
          "indexed": false,
          "internalType": "bool",
          "name": "isEnabled",
          "type": "bool"
        }
      ],
      "name": "MessengerAdded",
      "type": "event"
    },
    {
      "anonymous": false,
      "inputs": [
        {
          "indexed": false,
          "internalType": "uint256",
          "name": "messengerId",
          "type": "uint256"
        }
      ],
      "name": "MessengerDisabled",
      "type": "event"
    },
    {
      "anonymous": false,
      "inputs": [
        {
          "indexed": false,
          "internalType": "uint256",
          "name": "messengerId",
          "type": "uint256"
        }
      ],
      "name": "MessengerEnabled",
      "type": "event"
    },
    {
      "anonymous": false,
      "inputs": [
        {
          "indexed": true,
          "internalType": "address",
          "name": "previousOwner",
          "type": "address"
        },
        {
          "indexed": true,
          "internalType": "address",
          "name": "newOwner",
          "type": "address"
        }
      ],
      "name": "OwnershipTransferred",
      "type": "event"
    },
    {
      "anonymous": false,
      "inputs": [
        {
          "indexed": false,
          "internalType": "uint256",
          "name": "_pendingValidatorsLimit",
          "type": "uint256"
        }
      ],
      "name": "SetPendingValidatorsLimit",
      "type": "event"
    },
    {
      "anonymous": false,
      "inputs": [
        {
          "indexed": true,
          "internalType": "address",
          "name": "user",
          "type": "address"
        },
        {
          "indexed": false,
          "internalType": "uint256",
          "name": "amount",
          "type": "uint256"
        },
        {
          "indexed": false,
          "internalType": "uint256",
          "name": "block_time",
          "type": "uint256"
        }
      ],
      "name": "Stake",
      "type": "event"
    },
    {
      "anonymous": false,
      "inputs": [
        {
          "indexed": false,
          "internalType": "address",
          "name": "user",
          "type": "address"
        },
        {
          "indexed": false,
          "internalType": "address",
          "name": "optimism",
          "type": "address"
        },
        {
          "indexed": false,
          "internalType": "uint256",
          "name": "amount",
          "type": "uint256"
        },
        {
          "indexed": false,
          "internalType": "uint256",
          "name": "messengerId",
          "type": "uint256"
        }
      ],
      "name": "TransferredToL2",
      "type": "event"
    },
    {
      "anonymous": false,
      "inputs": [
        {
          "indexed": false,
          "internalType": "uint256",
          "name": "_pendingValidators",
          "type": "uint256"
        }
      ],
      "name": "UpdatePendingValidators",
      "type": "event"
    },
    {
      "inputs": [],
      "name": "BASIS_POINT",
      "outputs": [
        {
          "internalType": "uint256",
          "name": "",
          "type": "uint256"
        }
      ],
      "stateMutability": "view",
      "type": "function"
    },
    {
      "inputs": [],
      "name": "DEPOSIT_CONTRACT",
      "outputs": [
        {
          "internalType": "contract IDepositContract",
          "name": "",
          "type": "address"
        }
      ],
      "stateMutability": "view",
      "type": "function"
    },
    {
      "inputs": [],
      "name": "VALIDATOR_DEPOSIT",
      "outputs": [
        {
          "internalType": "uint256",
          "name": "",
          "type": "uint256"
        }
      ],
      "stateMutability": "view",
      "type": "function"
    },
    {
      "inputs": [],
      "name": "VERIFICATION_DEPOSIT",
      "outputs": [
        {
          "internalType": "uint256",
          "name": "",
          "type": "uint256"
        }
      ],
      "stateMutability": "view",
      "type": "function"
    },
    {
      "inputs": [
        {
          "components": [
            {
              "internalType": "address",
              "name": "messenger",
              "type": "address"
            },
            {
              "internalType": "bool",
              "name": "isEnabled",
              "type": "bool"
            }
          ],
          "internalType": "struct Issuer.MessengerData[]",
          "name": "_messengers",
          "type": "tuple[]"
        }
      ],
      "name": "addMessenger",
      "outputs": [
        {
          "internalType": "uint256[]",
          "name": "",
          "type": "uint256[]"
        }
      ],
      "stateMutability": "nonpayable",
      "type": "function"
    },
    {
      "inputs": [],
      "name": "core",
      "outputs": [
        {
          "internalType": "contract ICore",
          "name": "",
          "type": "address"
        }
      ],
      "stateMutability": "view",
      "type": "function"
    },
    {
      "inputs": [
        {
          "internalType": "bytes",
          "name": "publicKey",
          "type": "bytes"
        }
      ],
      "name": "depositToEth2",
      "outputs": [],
      "stateMutability": "nonpayable",
      "type": "function"
    },
    {
      "inputs": [
        {
          "internalType": "uint256",
          "name": "_messengerId",
          "type": "uint256"
        }
      ],
      "name": "disableMessenger",
      "outputs": [],
      "stateMutability": "nonpayable",
      "type": "function"
    },
    {
      "inputs": [
        {
          "internalType": "uint256",
          "name": "_messengerId",
          "type": "uint256"
        }
      ],
      "name": "enableMessenger",
      "outputs": [],
      "stateMutability": "nonpayable",
      "type": "function"
    },
    {
      "inputs": [],
      "name": "ethStaked",
      "outputs": [
        {
          "internalType": "uint256",
          "name": "",
          "type": "uint256"
        }
      ],
      "stateMutability": "view",
      "type": "function"
    },
    {
      "inputs": [],
      "name": "getDepositOptimism",
      "outputs": [],
      "stateMutability": "payable",
      "type": "function"
    },
    {
      "inputs": [
        {
          "internalType": "uint256",
          "name": "_messengerId",
          "type": "uint256"
        }
      ],
      "name": "getMessenger",
      "outputs": [
        {
          "internalType": "bool",
          "name": "",
          "type": "bool"
        },
        {
          "internalType": "address",
          "name": "",
          "type": "address"
        }
      ],
      "stateMutability": "view",
      "type": "function"
    },
    {
      "inputs": [],
      "name": "getNumberMessengers",
      "outputs": [
        {
          "internalType": "uint256",
          "name": "",
          "type": "uint256"
        }
      ],
      "stateMutability": "view",
      "type": "function"
    },
    {
      "inputs": [
        {
          "internalType": "contract ICore",
          "name": "_core",
          "type": "address"
        },
        {
          "internalType": "uint256",
          "name": "_pendingValidatorsLimit",
          "type": "uint256"
        },
        {
          "internalType": "address",
          "name": "_depositContract",
          "type": "address"
        },
        {
          "internalType": "uint256",
          "name": "_pendingValidators",
          "type": "uint256"
        },
        {
          "internalType": "uint256",
          "name": "_ethStaked",
          "type": "uint256"
        },
        {
          "internalType": "uint256",
          "name": "_ethMinted",
          "type": "uint256"
        }
      ],
      "name": "initialize",
      "outputs": [],
      "stateMutability": "nonpayable",
      "type": "function"
    },
    {
      "inputs": [
        {
          "internalType": "uint256",
          "name": "",
          "type": "uint256"
        }
      ],
      "name": "messengers",
      "outputs": [
        {
          "internalType": "address",
          "name": "messenger",
          "type": "address"
        },
        {
          "internalType": "bool",
          "name": "isEnabled",
          "type": "bool"
        }
      ],
      "stateMutability": "view",
      "type": "function"
    },
    {
      "inputs": [
        {
          "internalType": "uint256",
          "name": "_messengerId",
          "type": "uint256"
        },
        {
          "internalType": "address",
          "name": "_receiverAddress",
          "type": "address"
        }
      ],
      "name": "mintL2",
      "outputs": [],
      "stateMutability": "payable",
      "type": "function"
    },
    {
      "inputs": [],
      "name": "owner",
      "outputs": [
        {
          "internalType": "address",
          "name": "",
          "type": "address"
        }
      ],
      "stateMutability": "view",
      "type": "function"
    },
    {
      "inputs": [],
      "name": "pause",
      "outputs": [],
      "stateMutability": "nonpayable",
      "type": "function"
    },
    {
      "inputs": [],
      "name": "pendingValidatorLimit",
      "outputs": [
        {
          "internalType": "uint256",
          "name": "",
          "type": "uint256"
        }
      ],
      "stateMutability": "view",
      "type": "function"
    },
    {
      "inputs": [],
      "name": "pendingValidators",
      "outputs": [
        {
          "internalType": "uint256",
          "name": "",
          "type": "uint256"
        }
      ],
      "stateMutability": "view",
      "type": "function"
    },
    {
      "inputs": [],
      "name": "pendingValidatorsLimit",
      "outputs": [
        {
          "internalType": "uint256",
          "name": "",
          "type": "uint256"
        }
      ],
      "stateMutability": "view",
      "type": "function"
    },
    {
      "inputs": [],
      "name": "renounceOwnership",
      "outputs": [],
      "stateMutability": "nonpayable",
      "type": "function"
    },
    {
      "inputs": [
        {
          "internalType": "uint256",
          "name": "_pendingValidatorsLimit",
          "type": "uint256"
        }
      ],
      "name": "setPendingValidatorsLimit",
      "outputs": [],
      "stateMutability": "nonpayable",
      "type": "function"
    },
    {
      "inputs": [],
      "name": "stake",
      "outputs": [],
      "stateMutability": "payable",
      "type": "function"
    },
    {
      "inputs": [],
      "name": "stkEthMinted",
      "outputs": [
        {
          "internalType": "uint256",
          "name": "",
          "type": "uint256"
        }
      ],
      "stateMutability": "view",
      "type": "function"
    },
    {
      "inputs": [
        {
          "internalType": "address",
          "name": "newOwner",
          "type": "address"
        }
      ],
      "name": "transferOwnership",
      "outputs": [],
      "stateMutability": "nonpayable",
      "type": "function"
    },
    {
      "inputs": [
        {
          "internalType": "uint256",
          "name": "_messengerId",
          "type": "uint256"
        },
        {
          "internalType": "uint256",
          "name": "_amount",
          "type": "uint256"
        },
        {
          "internalType": "address",
          "name": "_receiverAddress",
          "type": "address"
        }
      ],
      "name": "transferToL2",
      "outputs": [],
      "stateMutability": "nonpayable",
      "type": "function"
    },
    {
      "inputs": [],
      "name": "unpause",
      "outputs": [],
      "stateMutability": "nonpayable",
      "type": "function"
    },
    {
      "inputs": [
        {
          "internalType": "uint256",
          "name": "newActiveValidators",
          "type": "uint256"
        }
      ],
      "name": "updatePendingValidator",
      "outputs": [],
      "stateMutability": "nonpayable",
      "type": "function"
    }
  ],
  "bytecode": "0x608060405234801561001057600080fd5b50612238806100206000396000f3fe6080604052600436106101c25760003560e01c80638da5cb5b116100f7578063cbe0944a11610095578063f2f4eb2611610064578063f2f4eb26146104cc578063f2fde38b146104ec578063f357397b1461050c578063f9fde9f41461051457600080fd5b8063cbe0944a14610462578063dcc77f0814610477578063ed7a8e6414610497578063ee24b86a146104b757600080fd5b8063a251b5a1116100d1578063a251b5a11461040d578063a46d55e914610420578063a82f255b14610436578063ada5f6421461044c57600080fd5b80638da5cb5b146103b357806390100bcc146103d15780639d95d0a8146103ed57600080fd5b8063441d92cc116101645780636b96736b1161013e5780636b96736b14610331578063715018a61461036957806380d2ac1c1461037e5780638456cb591461039e57600080fd5b8063441d92cc146102bf57806351310bd6146102dc5780635b49dc081461031b57600080fd5b806324ec66b3116101a057806324ec66b3146102435780632feb0be6146102825780633a4b66f1146102a25780633f4ba83a146102aa57600080fd5b806304989885146101c7578063111f052c146101fd578063114b095e1461021f575b600080fd5b3480156101d357600080fd5b506101e76101e2366004611bb6565b610534565b6040516101f49190611c2b565b60405180910390f35b34801561020957600080fd5b5061021d610218366004611c6f565b610725565b005b34801561022b57600080fd5b50610235609c5481565b6040519081526020016101f4565b34801561024f57600080fd5b5061026361025e366004611c6f565b6107b7565b604080516001600160a01b0390931683529015156020830152016101f4565b34801561028e57600080fd5b5061021d61029d366004611c6f565b6107ec565b61021d6108f2565b3480156102b657600080fd5b5061021d610992565b3480156102cb57600080fd5b506102356801ae361fc1451c000081565b3480156102e857600080fd5b506102fc6102f7366004611c6f565b6109dd565b6040805192151583526001600160a01b039091166020830152016101f4565b34801561032757600080fd5b50610235609a5481565b34801561033d57600080fd5b50609854610351906001600160a01b031681565b6040516001600160a01b0390911681526020016101f4565b34801561037557600080fd5b5061021d610a41565b34801561038a57600080fd5b5061021d610399366004611c9d565b610a53565b3480156103aa57600080fd5b5061021d610bb6565b3480156103bf57600080fd5b506065546001600160a01b0316610351565b3480156103dd57600080fd5b50610235670de0b6b3a764000081565b3480156103f957600080fd5b5061021d610408366004611cf9565b610c03565b61021d61041b366004611d32565b610ef3565b34801561042c57600080fd5b50610235609b5481565b34801561044257600080fd5b5061023560995481565b34801561045857600080fd5b5061023561271081565b34801561046e57600080fd5b50609a54610235565b34801561048357600080fd5b5061021d610492366004611c6f565b611170565b3480156104a357600080fd5b5061021d6104b2366004611c6f565b611203565b3480156104c357600080fd5b50609d54610235565b3480156104d857600080fd5b50609754610351906001600160a01b031681565b3480156104f857600080fd5b5061021d610507366004611d62565b611280565b61021d6112f9565b34801561052057600080fd5b5061021d61052f366004611d86565b61133a565b606061053e6116be565b8161055c57604051631dd5486360e31b815260040160405180910390fd5b60008267ffffffffffffffff81111561057757610577611de6565b6040519080825280602002602001820160405280156105a0578160200160208202803683370190505b50905060005b8381101561071d5760008585838181106105c2576105c2611dfc565b6105d89260206040909202019081019150611d62565b6001600160a01b031614156106005760405163d92e233d60e01b815260040160405180910390fd5b609d85858381811061061457610614611dfc565b835460018101855560009485526020909420604090910292909201929190910190506106408282611e20565b5050609d5461065190600190611e8f565b82828151811061066357610663611dfc565b6020026020010181815250507f2233f2853a7e43dd213cfcd4fd359c807587c3233c09642286d298cb064ff7ca818686848181106106a3576106a3611dfc565b6106b99260206040909202019081019150611d62565b8787858181106106cb576106cb611dfc565b90506040020160200160208101906106e39190611ea6565b604080519384526001600160a01b03909216602084015215159082015260600160405180910390a18061071581611ec3565b9150506105a6565b509392505050565b61072d6116be565b612710811061077b5760405162461bcd60e51b8152602060048201526015602482015274125cdcdd595c8e881a5b9d985b1a59081b1a5b5a5d605a1b60448201526064015b60405180910390fd5b609a8190556040518181527ff13548771f8b7580cc62ccca5ed3dee7b41528a7ae35b642f1d8efc295075cce906020015b60405180910390a150565b609d81815481106107c757600080fd5b6000918252602090912001546001600160a01b0381169150600160a01b900460ff1682565b609754604080516307dc0d1d60e41b8152905133926001600160a01b031691637dc0d1d09160048083019260209291908290030181865afa158015610835573d6000803e3d6000fd5b505050506040513d601f19601f820116820180604052508101906108599190611eee565b6001600160a01b0316146108af5760405162461bcd60e51b815260206004820152601e60248201527f4973737565723a204f6e6c79206f7261636c652063616e2075706461746500006044820152606401610772565b806099546108bd9190611e8f565b60998190556040519081527f62a3b78aede45534644db5c8d40aa4d36bee5174ee6899574215f3c078188036906020016107ac565b609754600160a01b900460ff161561091d57604051634533a2b560e11b815260040160405180910390fd5b3461093b57604051636207797760e11b815260040160405180910390fd5b6040805134815242602082015233917f5af417134f72a9d41143ace85b0a26dce6f550f894f2cbc1eeee8810603d91b6910160405180910390a234609b546109839190611f0b565b609b556109903433611718565b565b61099a6116be565b6097805460ff60a01b191690556040514381527f36b0aa518e5bb69761c9ebb4ba308f44f6b1e319346947122d6e9d2665037de9906020015b60405180910390a1565b600080609d83815481106109f3576109f3611dfc565b9060005260206000200160000160149054906101000a900460ff16609d8481548110610a2157610a21611dfc565b60009182526020909120015490946001600160a01b039091169350915050565b610a496116be565b61099060006118e4565b600054610100900460ff1615808015610a735750600054600160ff909116105b80610a8d5750303b158015610a8d575060005460ff166001145b610af05760405162461bcd60e51b815260206004820152602e60248201527f496e697469616c697a61626c653a20636f6e747261637420697320616c72656160448201526d191e481a5b9a5d1a585b1a5e995960921b6064820152608401610772565b6000805460ff191660011790558015610b13576000805461ff0019166101001790555b610b1b611936565b610b23611965565b609780546001600160a01b03808a166001600160a01b031992831617909255609a88905560988054928816929091169190911790556099849055609b839055609c8290558015610bad576000805461ff0019169055604051600181527f7f26b83ff96e1f2b6a682f133852f6798a09c465da95921460cefb38474024989060200160405180910390a15b50505050505050565b610bbe6116be565b6097805460ff60a01b1916600160a01b1790556040517f1f56865eed36853b82b13b742f7f60f4056c34e5a8b727e2c67c12190da413ca906109d39043815260200190565b609754600160a01b900460ff1615610c2e57604051634533a2b560e11b815260040160405180910390fd5b82610c3881611994565b610c41816119e9565b60975460408051637cd8548560e01b815290516000926001600160a01b031691637cd854859160048083019260209291908290030181865afa158015610c8b573d6000803e3d6000fd5b505050506040513d601f19601f82011682018060405250810190610caf9190611eee565b6040516370a0823160e01b81523360048201526001600160a01b0391909116906370a0823190602401602060405180830381865afa158015610cf5573d6000803e3d6000fd5b505050506040513d601f19601f82011682018060405250810190610d199190611f23565b9050838110610ed357609760009054906101000a90046001600160a01b03166001600160a01b0316637cd854856040518163ffffffff1660e01b8152600401602060405180830381865afa158015610d75573d6000803e3d6000fd5b505050506040513d601f19601f82011682018060405250810190610d999190611eee565b604051632770a7eb60e21b8152336004820152602481018690526001600160a01b039190911690639dc29fac90604401600060405180830381600087803b158015610de357600080fd5b505af1158015610df7573d6000803e3d6000fd5b50505050609d8581548110610e0e57610e0e611dfc565b6000918252602090912001546040516307516c1f60e11b81526001600160a01b0385811660048301526024820187905290911690630ea2d83e90604401600060405180830381600087803b158015610e6557600080fd5b505af1158015610e79573d6000803e3d6000fd5b5050604080513381526001600160a01b0387166020820152908101879052606081018890527f8887eadce601fe2e2bbad0bd002cc491fcbe8785a0dc94c176c5df85abc214dc9250608001905060405180910390a1610eec565b604051631e9acf1760e31b815260040160405180910390fd5b5050505050565b609754600160a01b900460ff1615610f1e57604051634533a2b560e11b815260040160405180910390fd5b34610f3c57604051636207797760e11b815260040160405180910390fd5b81610f4681611994565b610f4f816119e9565b6040805134815242602082015233917f5af417134f72a9d41143ace85b0a26dce6f550f894f2cbc1eeee8810603d91b6910160405180910390a260975460408051637cd8548560e01b815290516000926001600160a01b031691637cd854859160048083019260209291908290030181865afa158015610fd3573d6000803e3d6000fd5b505050506040513d601f19601f82011682018060405250810190610ff79190611eee565b6001600160a01b03166399530b066040518163ffffffff1660e01b8152600401602060405180830381865afa158015611034573d6000803e3d6000fd5b505050506040513d601f19601f820116820180604052508101906110589190611f23565b61106a34670de0b6b3a7640000611f3c565b6110749190611f5b565b9050609d848154811061108957611089611dfc565b6000918252602090912001546040516307516c1f60e11b81526001600160a01b0385811660048301526024820184905290911690630ea2d83e90604401600060405180830381600087803b1580156110e057600080fd5b505af11580156110f4573d6000803e3d6000fd5b5050505080609c546111069190611f0b565b609c55609b54611117903490611f0b565b609b55604080513381526001600160a01b0385166020820152908101829052606081018590527f8887eadce601fe2e2bbad0bd002cc491fcbe8785a0dc94c176c5df85abc214dc9060800160405180910390a150505050565b6111786116be565b8061118281611994565b61118b816119e9565b6000609d83815481106111a0576111a0611dfc565b60009182526020909120018054911515600160a01b0260ff60a01b199092169190911790556040517f07431de27d8d44d83b0a095cb2d166e4d367ae12f6049d77e3954b3b84f65ab9906111f79084815260200190565b60405180910390a15050565b61120b6116be565b61121481611994565b6001609d828154811061122957611229611dfc565b60009182526020909120018054911515600160a01b0260ff60a01b199092169190911790556040517f27e0a574d176231be3e81a6f7a15ff44d6d1b4a23b58c2761f02c0352360db3b906107ac9083815260200190565b6112886116be565b6001600160a01b0381166112ed5760405162461bcd60e51b815260206004820152602660248201527f4f776e61626c653a206e6577206f776e657220697320746865207a65726f206160448201526564647265737360d01b6064820152608401610772565b6112f6816118e4565b50565b34156109905734609b60008282546113119190611f0b565b909155506113229050366000611c6f565b609c60008282546113339190611f0b565b9091555050565b609754600160a01b900460ff161561136557604051634533a2b560e11b815260040160405180910390fd5b611380670de0b6b3a76400006801ae361fc1451c0000611f0b565b4710156113da5760405162461bcd60e51b815260206004820152602260248201527f4973737565723a204e6f7420656e6f756768206574686572206465706f736974604482015261195960f21b6064820152608401610772565b60975460408051630bbbbe7560e31b815290516000926001600160a01b031691635dddf3a89160048083019260209291908290030181865afa158015611424573d6000803e3d6000fd5b505050506040513d601f19601f820116820180604052508101906114489190611eee565b6001600160a01b0316636c36511a84846040518363ffffffff1660e01b8152600401611475929190611fa6565b600060405180830381865afa158015611492573d6000803e3d6000fd5b505050506040513d6000823e601f3d908101601f191682016040526114ba919081019061204c565b90506114c98160400151611a32565b609760009054906101000a90046001600160a01b03166001600160a01b0316635dddf3a86040518163ffffffff1660e01b8152600401602060405180830381865afa15801561151c573d6000803e3d6000fd5b505050506040513d601f19601f820116820180604052508101906115409190611eee565b6001600160a01b0316634df84ea884846040518363ffffffff1660e01b815260040161156d929190611fa6565b600060405180830381600087803b15801561158757600080fd5b505af115801561159b573d6000803e3d6000fd5b5050505060995460016115ae9190611f0b565b60995560985460975460408051638305930360e01b815290516001600160a01b03938416936322895118936801ae361fc1451c00009389938993909216916383059303916004808201926020929091908290030181865afa158015611617573d6000803e3d6000fd5b505050506040513d601f19601f8201168201806040525081019061163b9190611f23565b60405160200161164d91815260200190565b60408051601f1981840301815290829052602088015160608901516001600160e01b031960e089901b16845261168795949360040161216a565b6000604051808303818588803b1580156116a057600080fd5b505af11580156116b4573d6000803e3d6000fd5b5050505050505050565b6065546001600160a01b031633146109905760405162461bcd60e51b815260206004820181905260248201527f4f776e61626c653a2063616c6c6572206973206e6f7420746865206f776e65726044820152606401610772565b60975460408051637cd8548560e01b815290516000926001600160a01b031691637cd854859160048083019260209291908290030181865afa158015611762573d6000803e3d6000fd5b505050506040513d601f19601f820116820180604052508101906117869190611eee565b6001600160a01b03166399530b066040518163ffffffff1660e01b8152600401602060405180830381865afa1580156117c3573d6000803e3d6000fd5b505050506040513d601f19601f820116820180604052508101906117e79190611f23565b6117f984670de0b6b3a7640000611f3c565b6118039190611f5b565b905080609c546118139190611f0b565b609c5560975460408051637cd8548560e01b815290516001600160a01b0390921691637cd85485916004808201926020929091908290030181865afa158015611860573d6000803e3d6000fd5b505050506040513d601f19601f820116820180604052508101906118849190611eee565b6040516340c10f1960e01b81526001600160a01b0384811660048301526024820184905291909116906340c10f1990604401600060405180830381600087803b1580156118d057600080fd5b505af1158015610bad573d6000803e3d6000fd5b606580546001600160a01b038381166001600160a01b0319831681179093556040519116919082907f8be0079c531659141344cd1fd0a4f28419497f9722a3daafe3b4186f6b6457e090600090a35050565b600054610100900460ff1661195d5760405162461bcd60e51b8152600401610772906121b7565b610990611aff565b600054610100900460ff1661198c5760405162461bcd60e51b8152600401610772906121b7565b610990611b2f565b60006001600160a01b0316609d82815481106119b2576119b2611dfc565b6000918252602090912001546001600160a01b031614156112f657604051634b731b4b60e01b815260048101829052602401610772565b609d81815481106119fc576119fc611dfc565b600091825260209091200154600160a01b900460ff166112f65760405163727dc07960e01b815260048101829052602401610772565b611a3a611b5c565b6000816001600160a01b0316670de0b6b3a764000060405160006040518083038185875af1925050503d8060008114611a8f576040519150601f19603f3d011682016040523d82523d6000602084013e611a94565b606091505b5050905080611af55760405162461bcd60e51b815260206004820152602760248201527f4973737565723a204661696c656420746f2073656e6420746f204e6f6465204f6044820152663832b930ba37b960c91b6064820152608401610772565b506112f660018055565b600054610100900460ff16611b265760405162461bcd60e51b8152600401610772906121b7565b610990336118e4565b600054610100900460ff16611b565760405162461bcd60e51b8152600401610772906121b7565b60018055565b60026001541415611baf5760405162461bcd60e51b815260206004820152601f60248201527f5265656e7472616e637947756172643a207265656e7472616e742063616c6c006044820152606401610772565b6002600155565b60008060208385031215611bc957600080fd5b823567ffffffffffffffff80821115611be157600080fd5b818501915085601f830112611bf557600080fd5b813581811115611c0457600080fd5b8660208260061b8501011115611c1957600080fd5b60209290920196919550909350505050565b6020808252825182820181905260009190848201906040850190845b81811015611c6357835183529284019291840191600101611c47565b50909695505050505050565b600060208284031215611c8157600080fd5b5035919050565b6001600160a01b03811681146112f657600080fd5b60008060008060008060c08789031215611cb657600080fd5b8635611cc181611c88565b9550602087013594506040870135611cd881611c88565b959894975094956060810135955060808101359460a0909101359350915050565b600080600060608486031215611d0e57600080fd5b83359250602084013591506040840135611d2781611c88565b809150509250925092565b60008060408385031215611d4557600080fd5b823591506020830135611d5781611c88565b809150509250929050565b600060208284031215611d7457600080fd5b8135611d7f81611c88565b9392505050565b60008060208385031215611d9957600080fd5b823567ffffffffffffffff80821115611db157600080fd5b818501915085601f830112611dc557600080fd5b813581811115611dd457600080fd5b866020828501011115611c1957600080fd5b634e487b7160e01b600052604160045260246000fd5b634e487b7160e01b600052603260045260246000fd5b80151581146112f657600080fd5b8135611e2b81611c88565b81546001600160a01b031981166001600160a01b039290921691821783556020840135611e5781611e12565b6001600160a81b03199190911690911790151560a01b60ff60a01b1617905550565b634e487b7160e01b600052601160045260246000fd5b600082821015611ea157611ea1611e79565b500390565b600060208284031215611eb857600080fd5b8135611d7f81611e12565b6000600019821415611ed757611ed7611e79565b5060010190565b8051611ee981611c88565b919050565b600060208284031215611f0057600080fd5b8151611d7f81611c88565b60008219821115611f1e57611f1e611e79565b500190565b600060208284031215611f3557600080fd5b5051919050565b6000816000190483118215151615611f5657611f56611e79565b500290565b600082611f7857634e487b7160e01b600052601260045260246000fd5b500490565b81835281816020850137506000828201602090810191909152601f909101601f19169091010190565b602081526000611fba602083018486611f7d565b949350505050565b6040516080810167ffffffffffffffff81118282101715611fe557611fe5611de6565b60405290565b604051601f8201601f1916810167ffffffffffffffff8111828210171561201457612014611de6565b604052919050565b60005b8381101561203757818101518382015260200161201f565b83811115612046576000848401525b50505050565b6000602080838503121561205f57600080fd5b825167ffffffffffffffff8082111561207757600080fd5b908401906080828703121561208b57600080fd5b612093611fc2565b8251600481106120a257600080fd5b815282840151828111156120b557600080fd5b8301601f810188136120c657600080fd5b8051838111156120d8576120d8611de6565b6120ea601f8201601f19168701611feb565b9350808452888682840101111561210057600080fd5b61210f8187860188850161201c565b5050818482015261212260408401611ede565b6040820152606083015160608201528094505050505092915050565b6000815180845261215681602086016020860161201c565b601f01601f19169290920160200192915050565b60808152600061217e608083018789611f7d565b8281036020840152612190818761213e565b905082810360408401526121a4818661213e565b9150508260608301529695505050505050565b6020808252602b908201527f496e697469616c697a61626c653a20636f6e7472616374206973206e6f74206960408201526a6e697469616c697a696e6760a81b60608201526080019056fea2646970667358221220d45a377514c0612a17847b6af6cb62336f7060a211bce5282d6f37fc9974a89c64736f6c634300080a0033",
  "linkReferences": {},
  "deployedLinkReferences": {}
}