{
  "_format": "hh-sol-artifact-1",
  "contractName": "KeysManager",
  "sourceName": "contracts/KeysManager.sol",
  "abi": [
    {
      "inputs": [
        {
          "internalType": "address",
          "name": "_core",
          "type": "address"
        }
      ],
      "stateMutability": "nonpayable",
      "type": "constructor"
    },
    {
      "anonymous": false,
      "inputs": [
        {
          "indexed": false,
          "internalType": "bytes[]",
          "name": "publicKey",
          "type": "bytes[]"
        }
      ],
      "name": "ActivateValidator",
      "type": "event"
    },
    {
      "anonymous": false,
      "inputs": [
        {
          "indexed": false,
          "internalType": "bytes",
          "name": "publicKey",
          "type": "bytes"
        },
        {
          "indexed": false,
          "internalType": "bytes",
          "name": "signature",
          "type": "bytes"
        },
        {
          "indexed": false,
          "internalType": "address",
          "name": "nodeOperator",
          "type": "address"
        }
      ],
      "name": "AddValidator",
      "type": "event"
    },
    {
      "anonymous": false,
      "inputs": [
        {
          "indexed": false,
          "internalType": "bytes",
          "name": "publicKey",
          "type": "bytes"
        }
      ],
      "name": "DepositValidator",
      "type": "event"
    },
    {
      "anonymous": false,
      "inputs": [
        {
          "indexed": false,
          "internalType": "address",
          "name": "account",
          "type": "address"
        }
      ],
      "name": "Paused",
      "type": "event"
    },
    {
      "anonymous": false,
      "inputs": [
        {
          "indexed": false,
          "internalType": "address",
          "name": "_core",
          "type": "address"
        }
      ],
      "name": "SetCore",
      "type": "event"
    },
    {
      "anonymous": false,
      "inputs": [
        {
          "indexed": false,
          "internalType": "address",
          "name": "account",
          "type": "address"
        }
      ],
      "name": "Unpaused",
      "type": "event"
    },
    {
      "inputs": [],
      "name": "PUBKEY_LENGTH",
      "outputs": [
        {
          "internalType": "uint256",
          "name": "",
          "type": "uint256"
        }
      ],
      "stateMutability": "view",
      "type": "function"
    },
    {
      "inputs": [],
      "name": "SIGNATURE_LENGTH",
      "outputs": [
        {
          "internalType": "uint256",
          "name": "",
          "type": "uint256"
        }
      ],
      "stateMutability": "view",
      "type": "function"
    },
    {
      "inputs": [],
      "name": "VALIDATOR_DEPOSIT",
      "outputs": [
        {
          "internalType": "uint256",
          "name": "",
          "type": "uint256"
        }
      ],
      "stateMutability": "view",
      "type": "function"
    },
    {
      "inputs": [
        {
          "internalType": "bytes",
          "name": "",
          "type": "bytes"
        }
      ],
      "name": "_validators",
      "outputs": [
        {
          "internalType": "enum IKeysManager.State",
          "name": "state",
          "type": "uint8"
        },
        {
          "internalType": "bytes",
          "name": "signature",
          "type": "bytes"
        },
        {
          "internalType": "address",
          "name": "nodeOperator",
          "type": "address"
        },
        {
          "internalType": "bytes32",
          "name": "deposit_root",
          "type": "bytes32"
        }
      ],
      "stateMutability": "view",
      "type": "function"
    },
    {
      "inputs": [
        {
          "internalType": "bytes[]",
          "name": "publicKeys",
          "type": "bytes[]"
        }
      ],
      "name": "activateValidator",
      "outputs": [],
      "stateMutability": "nonpayable",
      "type": "function"
    },
    {
      "inputs": [
        {
          "internalType": "bytes",
          "name": "publicKey",
          "type": "bytes"
        },
        {
          "internalType": "bytes",
          "name": "signature",
          "type": "bytes"
        },
        {
          "internalType": "address",
          "name": "nodeOperator",
          "type": "address"
        }
      ],
      "name": "addValidator",
      "outputs": [],
      "stateMutability": "nonpayable",
      "type": "function"
    },
    {
      "inputs": [],
      "name": "core",
      "outputs": [
        {
          "internalType": "contract ICore",
          "name": "",
          "type": "address"
        }
      ],
      "stateMutability": "view",
      "type": "function"
    },
    {
      "inputs": [
        {
          "internalType": "bytes",
          "name": "publicKey",
          "type": "bytes"
        }
      ],
      "name": "depositValidator",
      "outputs": [],
      "stateMutability": "nonpayable",
      "type": "function"
    },
    {
      "inputs": [
        {
          "internalType": "address",
          "name": "",
          "type": "address"
        }
      ],
      "name": "nodeOperatorValidatorCount",
      "outputs": [
        {
          "internalType": "uint256",
          "name": "",
          "type": "uint256"
        }
      ],
      "stateMutability": "view",
      "type": "function"
    },
    {
      "inputs": [],
      "name": "oracle",
      "outputs": [
        {
          "internalType": "contract IOracle",
          "name": "",
          "type": "address"
        }
      ],
      "stateMutability": "view",
      "type": "function"
    },
    {
      "inputs": [],
      "name": "pause",
      "outputs": [],
      "stateMutability": "nonpayable",
      "type": "function"
    },
    {
      "inputs": [],
      "name": "paused",
      "outputs": [
        {
          "internalType": "bool",
          "name": "",
          "type": "bool"
        }
      ],
      "stateMutability": "view",
      "type": "function"
    },
    {
      "inputs": [
        {
          "internalType": "address",
          "name": "core_",
          "type": "address"
        }
      ],
      "name": "setCore",
      "outputs": [],
      "stateMutability": "nonpayable",
      "type": "function"
    },
    {
      "inputs": [],
      "name": "stkEth",
      "outputs": [
        {
          "internalType": "contract IStkEth",
          "name": "",
          "type": "address"
        }
      ],
      "stateMutability": "view",
      "type": "function"
    },
    {
      "inputs": [
        {
          "internalType": "address",
          "name": "a",
          "type": "address"
        }
      ],
      "name": "toBytes",
      "outputs": [
        {
          "internalType": "bytes",
          "name": "b",
          "type": "bytes"
        }
      ],
      "stateMutability": "pure",
      "type": "function"
    },
    {
      "inputs": [],
      "name": "unpause",
      "outputs": [],
      "stateMutability": "nonpayable",
      "type": "function"
    },
    {
      "inputs": [
        {
          "internalType": "bytes",
          "name": "publicKey",
          "type": "bytes"
        }
      ],
      "name": "validators",
      "outputs": [
        {
          "components": [
            {
              "internalType": "enum IKeysManager.State",
              "name": "state",
              "type": "uint8"
            },
            {
              "internalType": "bytes",
              "name": "signature",
              "type": "bytes"
            },
            {
              "internalType": "address",
              "name": "nodeOperator",
              "type": "address"
            },
            {
              "internalType": "bytes32",
              "name": "deposit_root",
              "type": "bytes32"
            }
          ],
          "internalType": "struct IKeysManager.Validator",
          "name": "",
          "type": "tuple"
        }
      ],
      "stateMutability": "view",
      "type": "function"
    }
  ],
  "bytecode": "0x60806040523480156200001157600080fd5b50604051620021d5380380620021d58339810160408190526200003491620000fb565b6000805460ff19169055806001600160a01b0381166200009a5760405162461bcd60e51b815260206004820152601560248201527f436f72655265663a205a65726f20616464726573730000000000000000000000604482015260640160405180910390fd5b60008054610100600160a81b0319166101006001600160a01b038416908102919091179091556040519081527fb509f1ef29149e474db3a4776b2b658ad1b70710ceb0a5635a375a4c388eed8e9060200160405180910390a150506200012d565b6000602082840312156200010e57600080fd5b81516001600160a01b03811681146200012657600080fd5b9392505050565b612098806200013d6000396000f3fe608060405234801561001057600080fd5b506004361061010b5760003560e01c80636c36511a116100a25780638000963011610071578063800096301461024b5780638456cb591461025e578063a1600a2c14610266578063a4d55d1d14610279578063f2f4eb261461028157600080fd5b80636c36511a146101e057806375202e26146102005780637cd85485146102235780637dc0d1d01461024357600080fd5b8063540bc5ea116100de578063540bc5ea14610163578063593b79fe1461016b5780635c975abb146101aa5780635ebaf411146101c057600080fd5b806321a844e9146101105780633f4ba83a14610125578063441d92cc1461012d5780634df84ea814610150575b600080fd5b61012361011e3660046119f3565b610297565b005b610123610493565b61013d6801ae361fc1451c000081565b6040519081526020015b60405180910390f35b61012361015e366004611ab6565b610529565b61013d606081565b61019d610179366004611b0b565b604080516001600160a01b0392909216600560a21b18601483015260348201905290565b6040516101479190611b8b565b60005460ff166040519015158152602001610147565b61013d6101ce366004611b0b565b60026020526000908152604090205481565b6101f36101ee366004611be7565b610958565b6040516101479190611c61565b61021361020e366004611ab6565b610a90565b6040516101479493929190611cb9565b61022b610b5e565b6040516001600160a01b039091168152602001610147565b61022b610bdb565b610123610259366004611b0b565b610c2f565b610123610d11565b610123610274366004611cf5565b610da5565b61013d603081565b60005461010090046001600160a01b031661022b565b60005461010090046001600160a01b03166001600160a01b0316637dc0d1d06040518163ffffffff1660e01b8152600401602060405180830381865afa1580156102e5573d6000803e3d6000fd5b505050506040513d601f19601f820116820180604052508101906103099190611d79565b6001600160a01b0316336001600160a01b03161461037c5760405162461bcd60e51b815260206004820152602560248201527f4b6579734d616e616765723a204f6e6c79206f7261636c652063616e20616374604482015264697661746560d81b60648201526084015b60405180910390fd5b60005b8151811015610458576000600183838151811061039e5761039e611d96565b60200260200101516040516103b39190611dac565b90815260405190819003602001902090506001815460ff1660038111156103dc576103dc611c29565b1461043b5760405162461bcd60e51b815260206004820152602960248201527f4b6579734d616e616765723a2056616c696461746f72206e6f7420696e2076616044820152686c696420737461746560b81b6064820152608401610373565b805460ff191660021790558061045081611dde565b91505061037f565b507f2305f27598fff095ce679015a5575c404f343c168bf541105c3c507fda57de30816040516104889190611df9565b60405180910390a150565b600054604051631c86b03760e31b81523360048201526101009091046001600160a01b03169063e43581b890602401602060405180830381865afa1580156104df573d6000803e3d6000fd5b505050506040513d601f19601f820116820180604052508101906105039190611e5b565b61051f5760405162461bcd60e51b815260040161037390611e7d565b610527611122565b565b60005461010090046001600160a01b03166001600160a01b0316631d1438486040518163ffffffff1660e01b8152600401602060405180830381865afa158015610577573d6000803e3d6000fd5b505050506040513d601f19601f8201168201806040525081019061059b9190611d79565b6001600160a01b0316336001600160a01b0316146106095760405162461bcd60e51b815260206004820152602560248201527f4b6579734d616e616765723a204f6e6c79206973737565722063616e20616374604482015264697661746560d81b6064820152608401610373565b600060018260405161061b9190611dac565b908152604080519182900360209081019092206002808201546001600160a01b0316600090815293529120549091506106626000546001600160a01b036101009091041690565b6001600160a01b031663d4c6d1de6040518163ffffffff1660e01b8152600401602060405180830381865afa15801561069f573d6000803e3d6000fd5b505050506040513d601f19601f820116820180604052508101906106c39190611d79565b600283015460405163ecfa51cb60e01b81526001600160a01b03918216600482015291169063ecfa51cb906024016020604051808303816000875af1158015610710573d6000803e3d6000fd5b505050506040513d601f19601f820116820180604052508101906107349190611ebe565b116107a75760405162461bcd60e51b815260206004820152603960248201527f4b6579734d616e616765723a2076616c696461746f72206465706f736974206e60448201527f6f74206164646564206279206e6f6465206f70657261746f72000000000000006064820152608401610373565b6002815460ff1660038111156107bf576107bf611c29565b1461080c5760405162461bcd60e51b815260206004820152601e60248201527f4b6579734d616e616765723a204b6579206e6f742061637469766174656400006044820152606401610373565b805460ff191660031781556002808201546001600160a01b0316600090815260209190915260408120805460019290610846908490611ed7565b909155505060005461010090046001600160a01b03166001600160a01b031663d4c6d1de6040518163ffffffff1660e01b8152600401602060405180830381865afa158015610899573d6000803e3d6000fd5b505050506040513d601f19601f820116820180604052508101906108bd9190611d79565b600282015460405163d0337a1960e01b81526001600160a01b03918216600482015291169063d0337a1990602401600060405180830381600087803b15801561090557600080fd5b505af1158015610919573d6000803e3d6000fd5b505050507f1b9403395d0e1f72879461686e0419902a7f32c30370daa5118211face524c0d8260405161094c9190611b8b565b60405180910390a15050565b6109836040805160808101909152806000815260606020820181905260006040830181905291015290565b60018383604051610995929190611eef565b90815260408051918290036020018220608083019091528054829060ff1660038111156109c4576109c4611c29565b60038111156109d5576109d5611c29565b81526020016001820180546109e990611eff565b80601f0160208091040260200160405190810160405280929190818152602001828054610a1590611eff565b8015610a625780601f10610a3757610100808354040283529160200191610a62565b820191906000526020600020905b815481529060010190602001808311610a4557829003601f168201915b505050918352505060028201546001600160a01b031660208201526003909101546040909101529392505050565b8051602081830181018051600180835293830192909401919091209290528154908201805460ff9092169291610ac590611eff565b80601f0160208091040260200160405190810160405280929190818152602001828054610af190611eff565b8015610b3e5780601f10610b1357610100808354040283529160200191610b3e565b820191906000526020600020905b815481529060010190602001808311610b2157829003601f168201915b50505050600283015460039093015491926001600160a01b031691905084565b60008060019054906101000a90046001600160a01b03166001600160a01b0316637cd854856040518163ffffffff1660e01b8152600401602060405180830381865afa158015610bb2573d6000803e3d6000fd5b505050506040513d601f19601f82011682018060405250810190610bd69190611d79565b905090565b60008060019054906101000a90046001600160a01b03166001600160a01b0316637dc0d1d06040518163ffffffff1660e01b8152600401602060405180830381865afa158015610bb2573d6000803e3d6000fd5b600054604051631c86b03760e31b81523360048201526101009091046001600160a01b03169063e43581b890602401602060405180830381865afa158015610c7b573d6000803e3d6000fd5b505050506040513d601f19601f82011682018060405250810190610c9f9190611e5b565b610cbb5760405162461bcd60e51b815260040161037390611e7d565b60008054610100600160a81b0319166101006001600160a01b038416908102919091179091556040519081527fb509f1ef29149e474db3a4776b2b658ad1b70710ceb0a5635a375a4c388eed8e90602001610488565b600054604051631c86b03760e31b81523360048201526101009091046001600160a01b03169063e43581b890602401602060405180830381865afa158015610d5d573d6000803e3d6000fd5b505050506040513d601f19601f82011682018060405250810190610d819190611e5b565b610d9d5760405162461bcd60e51b815260040161037390611e7d565b610527611174565b600054604051630105fd4760e41b81523360048201526101009091046001600160a01b03169063105fd47090602401602060405180830381865afa158015610df1573d6000803e3d6000fd5b505050506040513d601f19601f82011682018060405250810190610e159190611e5b565b610e745760405162461bcd60e51b815260206004820152602a60248201527f5065726d697373696f6e733a2043616c6c6572206973206e6f742061204e6f64604482015269329027b832b930ba37b960b11b6064820152608401610373565b600060018686604051610e88929190611eef565b90815260408051918290036020018220608083019091528054829060ff166003811115610eb757610eb7611c29565b6003811115610ec857610ec8611c29565b8152602001600182018054610edc90611eff565b80601f0160208091040260200160405190810160405280929190818152602001828054610f0890611eff565b8015610f555780601f10610f2a57610100808354040283529160200191610f55565b820191906000526020600020905b815481529060010190602001808311610f3857829003601f168201915b505050918352505060028201546001600160a01b031660208201526003909101546040909101529050600081516003811115610f9357610f93611c29565b14610fec5760405162461bcd60e51b8152602060048201526024808201527f4b6579734d616e616765723a2076616c696461746f7220616c726561647920656044820152631e1a5cdd60e21b6064820152608401610373565b60018152604080516020601f860181900481028201810190925284815290859085908190840183828082843760009201919091525050505060208201526001600160a01b0382166040820152611044868686866111b1565b6060820152604051819060019061105e9089908990611eef565b90815260405190819003602001902081518154829060ff1916600183600381111561108b5761108b611c29565b021790555060208281015180516110a892600185019201906118a3565b506040828101516002830180546001600160a01b0319166001600160a01b03909216919091179055606090920151600390910155517f1180cc2cdce407311033dcc42d2b946b96a459da7f2b97898c6d29c5cf962b73906111129088908890889088908890611f63565b60405180910390a1505050505050565b61112a611660565b6000805460ff191690557f5db9ee0a495bf2e6ff9c91a7834c1ba4fdd244a5e8aa4e537bd38aeae4b073aa335b6040516001600160a01b03909116815260200160405180910390a1565b61117c6116a9565b6000805460ff191660011790557f62e78cea01bee320cd4e420270b5ea74000d11b0c9f74754ebdbfc544b05a2586111573390565b6000806111cb633b9aca006801ae361fc1451c0000611fa5565b905060006111d8826116ef565b905060006111f46000546001600160a01b036101009091041690565b6001600160a01b031663830593036040518163ffffffff1660e01b8152600401602060405180830381865afa158015611231573d6000803e3d6000fd5b505050506040513d601f19601f820116820180604052508101906112559190611ebe565b9050600060028989600060801b60405160200161127493929190611fc7565b60408051601f198184030181529082905261128e91611dac565b602060405180830381855afa1580156112ab573d6000803e3d6000fd5b5050506040513d601f19601f820116820180604052508101906112ce9190611ebe565b905060006002806112e26040848b8d611fee565b6040516020016112f3929190611eef565b60408051601f198184030181529082905261130d91611dac565b602060405180830381855afa15801561132a573d6000803e3d6000fd5b5050506040513d601f19601f8201168201806040525081019061134d9190611ebe565b600261135c8a6040818e611fee565b604051611370929190600090602001612018565b60408051601f198184030181529082905261138a91611dac565b602060405180830381855afa1580156113a7573d6000803e3d6000fd5b5050506040513d601f19601f820116820180604052508101906113ca9190611ebe565b60408051602081019390935282015260600160408051601f19818403018152908290526113f691611dac565b602060405180830381855afa158015611413573d6000803e3d6000fd5b5050506040513d601f19601f820116820180604052508101906114369190611ebe565b90506002808385604051602001611457929190918252602082015260400190565b60408051601f198184030181529082905261147191611dac565b602060405180830381855afa15801561148e573d6000803e3d6000fd5b5050506040513d601f19601f820116820180604052508101906114b19190611ebe565b6040516002906114ca908890600090879060200161202a565b60408051601f19818403018152908290526114e491611dac565b602060405180830381855afa158015611501573d6000803e3d6000fd5b5050506040513d601f19601f820116820180604052508101906115249190611ebe565b60408051602081019390935282015260600160408051601f198184030181529082905261155091611dac565b602060405180830381855afa15801561156d573d6000803e3d6000fd5b5050506040513d601f19601f820116820180604052508101906115909190611ebe565b9550603089146115f15760405162461bcd60e51b815260206004820152602660248201527f4465706f736974436f6e74726163743a20696e76616c6964207075626b6579206044820152650d8cadccee8d60d31b6064820152608401610373565b606087146116535760405162461bcd60e51b815260206004820152602960248201527f4465706f736974436f6e74726163743a20696e76616c6964207369676e6174756044820152680e4ca40d8cadccee8d60bb1b6064820152608401610373565b5050505050949350505050565b60005460ff166105275760405162461bcd60e51b815260206004820152601460248201527314185d5cd8589b194e881b9bdd081c185d5cd95960621b6044820152606401610373565b60005460ff16156105275760405162461bcd60e51b815260206004820152601060248201526f14185d5cd8589b194e881c185d5cd95960821b6044820152606401610373565b60408051600880825281830190925260609160208201818036833701905050905060c082901b8060071a60f81b8260008151811061172f5761172f611d96565b60200101906001600160f81b031916908160001a9053508060061a60f81b8260018151811061176057611760611d96565b60200101906001600160f81b031916908160001a9053508060051a60f81b8260028151811061179157611791611d96565b60200101906001600160f81b031916908160001a9053508060041a60f81b826003815181106117c2576117c2611d96565b60200101906001600160f81b031916908160001a9053508060031a60f81b826004815181106117f3576117f3611d96565b60200101906001600160f81b031916908160001a9053508060021a60f81b8260058151811061182457611824611d96565b60200101906001600160f81b031916908160001a9053508060011a60f81b8260068151811061185557611855611d96565b60200101906001600160f81b031916908160001a9053508060001a60f81b8260078151811061188657611886611d96565b60200101906001600160f81b031916908160001a90535050919050565b8280546118af90611eff565b90600052602060002090601f0160209004810192826118d15760008555611917565b82601f106118ea57805160ff1916838001178555611917565b82800160010185558215611917579182015b828111156119175782518255916020019190600101906118fc565b50611923929150611927565b5090565b5b808211156119235760008155600101611928565b634e487b7160e01b600052604160045260246000fd5b604051601f8201601f1916810167ffffffffffffffff8111828210171561197b5761197b61193c565b604052919050565b600082601f83011261199457600080fd5b813567ffffffffffffffff8111156119ae576119ae61193c565b6119c1601f8201601f1916602001611952565b8181528460208386010111156119d657600080fd5b816020850160208301376000918101602001919091529392505050565b60006020808385031215611a0657600080fd5b823567ffffffffffffffff80821115611a1e57600080fd5b818501915085601f830112611a3257600080fd5b813581811115611a4457611a4461193c565b8060051b611a53858201611952565b9182528381018501918581019089841115611a6d57600080fd5b86860192505b83831015611aa957823585811115611a8b5760008081fd5b611a998b89838a0101611983565b8352509186019190860190611a73565b9998505050505050505050565b600060208284031215611ac857600080fd5b813567ffffffffffffffff811115611adf57600080fd5b611aeb84828501611983565b949350505050565b6001600160a01b0381168114611b0857600080fd5b50565b600060208284031215611b1d57600080fd5b8135611b2881611af3565b9392505050565b60005b83811015611b4a578181015183820152602001611b32565b83811115611b59576000848401525b50505050565b60008151808452611b77816020860160208601611b2f565b601f01601f19169290920160200192915050565b602081526000611b286020830184611b5f565b60008083601f840112611bb057600080fd5b50813567ffffffffffffffff811115611bc857600080fd5b602083019150836020828501011115611be057600080fd5b9250929050565b60008060208385031215611bfa57600080fd5b823567ffffffffffffffff811115611c1157600080fd5b611c1d85828601611b9e565b90969095509350505050565b634e487b7160e01b600052602160045260246000fd5b60048110611c5d57634e487b7160e01b600052602160045260246000fd5b9052565b60208152611c73602082018351611c3f565b6000602083015160806040840152611c8e60a0840182611b5f565b60408501516001600160a01b0316606085810191909152909401516080909301929092525090919050565b611cc38186611c3f565b608060208201526000611cd96080830186611b5f565b6001600160a01b03949094166040830152506060015292915050565b600080600080600060608688031215611d0d57600080fd5b853567ffffffffffffffff80821115611d2557600080fd5b611d3189838a01611b9e565b90975095506020880135915080821115611d4a57600080fd5b50611d5788828901611b9e565b9094509250506040860135611d6b81611af3565b809150509295509295909350565b600060208284031215611d8b57600080fd5b8151611b2881611af3565b634e487b7160e01b600052603260045260246000fd5b60008251611dbe818460208701611b2f565b9190910192915050565b634e487b7160e01b600052601160045260246000fd5b6000600019821415611df257611df2611dc8565b5060010190565b6000602080830181845280855180835260408601915060408160051b870101925083870160005b82811015611e4e57603f19888603018452611e3c858351611b5f565b94509285019290850190600101611e20565b5092979650505050505050565b600060208284031215611e6d57600080fd5b81518015158114611b2857600080fd5b60208082526021908201527f436f72655265663a2043616c6c6572206973206e6f74206120676f7665726e6f6040820152603960f91b606082015260800190565b600060208284031215611ed057600080fd5b5051919050565b60008219821115611eea57611eea611dc8565b500190565b8183823760009101908152919050565b600181811c90821680611f1357607f821691505b60208210811415611f3457634e487b7160e01b600052602260045260246000fd5b50919050565b81835281816020850137506000828201602090810191909152601f909101601f19169091010190565b606081526000611f77606083018789611f3a565b8281036020840152611f8a818688611f3a565b91505060018060a01b03831660408301529695505050505050565b600082611fc257634e487b7160e01b600052601260045260246000fd5b500490565b828482376fffffffffffffffffffffffffffffffff19919091169101908152601001919050565b60008085851115611ffe57600080fd5b8386111561200b57600080fd5b5050820193919092039150565b82848237909101908152602001919050565b6000845161203c818460208901611b2f565b67ffffffffffffffff19949094169190930190815260188101919091526038019291505056fea2646970667358221220767f9eba73c1b86c127781ffc8cf9877d3742e1b6d1214b09d39ffabbc49995e64736f6c634300080a0033",
  "linkReferences": {},
  "deployedLinkReferences": {}
}